:020000020000FC
:020000004FC0EF
:0200040047C1F2
:0200080047C1EE
:02000C0047C1EA
:0200100047C1E6
:020014004BC1DE
:020018004FC1D6
:020040003FC1BE
:1000A00000E10EBF0FEF0DBF0AEA00936A000AE0FD
:1000B0000ABF0FE309BF44275527662777278827FC
:1000C0009927AA27BB27CC27FF270FEF0ABB07BB1F
:1000D00004BB002701BB02B90FEF02BB03B907E065
:1000E00003BF01E007BF789404D076D0A4D0C4D079
:1000F000FBCF603029F0613049F06230A1F0089503
:1001000044275527A898A998AA980895A89AA99A23
:10011000AA9AF13038F0FF27A898A998AA984427FE
:10012000552762E0089502D03BD008957723E1F48B
:10013000882349F4992391F4F130B0F0FF27442348
:1001400099F04A950895552379F0992369F4B130CF
:1001500058F0BB270AD040F043950895B13020F005
:10016000BB27425008F444270895513051F05230D3
:1001700051F0533051F0543051F0553051F08894D3
:10018000089509E107C002E305C00BE403C004E6DB
:1001900001C00DE7401710F0089408958894089561
:1001A0000027443608F001E0142F143608F01456E6
:1001B00022271A3018F01A502395FBCF322F329590
:1001C000307F1F70312B38BB302F3295307F152F89
:1001D0001F70312B3BBB0895CC27623079F4882304
:1001E00019F0992309F0C160882319F0BEDF08F4E3
:1001F000C260992319F003D008F4C4600895513007
:1002000051F0523051F0533051F0543051F05530DC
:1002100051F08894089500E007C00FE005C003E2A4
:1002200003C00CE301C000E5401718F011F08894FA
:100230000895089408956230E1F4CC23D1F0AA2304
:10024000D1F4D395C0FD05C0C1FD09C0C2FD07C0F2
:1002500012C0D13051F0D23051F0DD2706C0D2307B
:1002600020F0D43020F0DD2700C0E16004C0EE7F34
:1002700002C0DD27EE7F08950027C0FD0160C1FDAB
:100280000260C2FD0460E0FD03C0002705BB0895C5
:1002900005BB089581E0189591E0189571E01895D7
:1002A000772319F0553009F053951895772319F0F5
:1002B000552309F05A951895603009F461E01895B6
:1002C00006E002BF809B01C08827819B01C099275F
:1002D000829B01C07727A395A83030F0AA27B39559
:0A02E000B33010F0F395BB2718951A
:00000001FF
